{
  "contractName": "FirstContact",
  "abi": [
    {
      "inputs": [],
      "payable": false,
      "stateMutability": "nonpayable",
      "type": "constructor"
    },
    {
      "anonymous": false,
      "inputs": [
        {
          "indexed": true,
          "name": "username",
          "type": "bytes32"
        },
        {
          "indexed": false,
          "name": "publicAddress",
          "type": "address"
        },
        {
          "indexed": false,
          "name": "fee",
          "type": "uint256"
        },
        {
          "indexed": false,
          "name": "linkedinUrl",
          "type": "string"
        }
      ],
      "name": "LogUserAdded",
      "type": "event"
    },
    {
      "anonymous": false,
      "inputs": [
        {
          "indexed": true,
          "name": "fromUsername",
          "type": "bytes32"
        },
        {
          "indexed": true,
          "name": "toUsername",
          "type": "bytes32"
        },
        {
          "indexed": false,
          "name": "text",
          "type": "string"
        }
      ],
      "name": "LogMessageSent",
      "type": "event"
    },
    {
      "constant": true,
      "inputs": [
        {
          "name": "username",
          "type": "bytes32"
        }
      ],
      "name": "isUsernameTaken",
      "outputs": [
        {
          "name": "",
          "type": "bool"
        }
      ],
      "payable": false,
      "stateMutability": "view",
      "type": "function"
    },
    {
      "constant": false,
      "inputs": [
        {
          "name": "username",
          "type": "bytes32"
        },
        {
          "name": "fee",
          "type": "uint256"
        },
        {
          "name": "linkedinUrl",
          "type": "string"
        },
        {
          "name": "publicAddress",
          "type": "address"
        }
      ],
      "name": "registerUser",
      "outputs": [],
      "payable": false,
      "stateMutability": "nonpayable",
      "type": "function"
    },
    {
      "constant": false,
      "inputs": [
        {
          "name": "toUsername",
          "type": "bytes32"
        },
        {
          "name": "text",
          "type": "string"
        }
      ],
      "name": "sendMessage",
      "outputs": [],
      "payable": true,
      "stateMutability": "payable",
      "type": "function"
    }
  ],
  "bytecode": "0x608060405234801561001057600080fd5b506109be806100206000396000f300608060405260043610610057576000357c0100000000000000000000000000000000000000000000000000000000900463ffffffff1680632a49222b1461005c57806372ddbc15146100a5578063e7df69b114610146575b600080fd5b34801561006857600080fd5b5061008b60048036038101908080356000191690602001909291905050506101b0565b604051808215151515815260200191505060405180910390f35b3480156100b157600080fd5b50610144600480360381019080803560001916906020019092919080359060200190929190803590602001908201803590602001908080601f0160208091040260200160405190810160405280939291908181526020018383808284378201915050505050509192919290803573ffffffffffffffffffffffffffffffffffffffff169060200190929190505050610210565b005b6101ae6004803603810190808035600019169060200190929190803590602001908201803590602001908080601f0160208091040260200160405190810160405280939291908181526020018383808284378201915050505050509192919290505050610587565b005b600080600080846000191660001916815260200190815260200160002060020160009054906101000a900473ffffffffffffffffffffffffffffffffffffffff1673ffffffffffffffffffffffffffffffffffffffff1614159050919050565b6102186108b5565b60007f01000000000000000000000000000000000000000000000000000000000000000285600060208110151561024b57fe5b1a7f0100000000000000000000000000000000000000000000000000000000000000027effffffffffffffffffffffffffffffffffffffffffffffffffffffffffffff19161415151561029d57600080fd5b60008273ffffffffffffffffffffffffffffffffffffffff16141515156102c357600080fd5b6102cc856101b0565b1515156102d857600080fd5b60007f010000000000000000000000000000000000000000000000000000000000000002600160003373ffffffffffffffffffffffffffffffffffffffff1673ffffffffffffffffffffffffffffffffffffffff16815260200190815260200160002054600060208110151561034a57fe5b1a7f0100000000000000000000000000000000000000000000000000000000000000027effffffffffffffffffffffffffffffffffffffffffffffffffffffffffffff191614151561039b57600080fd5b6060604051908101604052808581526020018481526020018373ffffffffffffffffffffffffffffffffffffffff1681525090508060008087600019166000191681526020019081526020016000206000820151816000015560208201518160010190805190602001906104109291906108ed565b5060408201518160020160006101000a81548173ffffffffffffffffffffffffffffffffffffffff021916908373ffffffffffffffffffffffffffffffffffffffff16021790555090505084600160003373ffffffffffffffffffffffffffffffffffffffff1673ffffffffffffffffffffffffffffffffffffffff168152602001908152602001600020816000191690555084600019167f7d2ed40c7212798c1c48e534f5d542fbfe0715c951deafda902fd4d511e58db5338686604051808473ffffffffffffffffffffffffffffffffffffffff1673ffffffffffffffffffffffffffffffffffffffff16815260200183815260200180602001828103825283818151815260200191508051906020019080838360005b83811015610544578082015181840152602081019050610529565b50505050905090810190601f1680156105715780820380516001836020036101000a031916815260200191505b5094505050505060405180910390a25050505050565b61058f6108b5565b600080600085600019166000191681526020019081526020016000206060604051908101604052908160008201548152602001600182018054600181600116156101000203166002900480601f01602080910402602001604051908101604052809291908181526020018280546001816001161561010002031660029004801561065a5780601f1061062f5761010080835404028352916020019161065a565b820191906000526020600020905b81548152906001019060200180831161063d57829003601f168201915b505050505081526020016002820160009054906101000a900473ffffffffffffffffffffffffffffffffffffffff1673ffffffffffffffffffffffffffffffffffffffff1673ffffffffffffffffffffffffffffffffffffffff168152505091506000826040015173ffffffffffffffffffffffffffffffffffffffff16141515156106e557600080fd5b8160000151341415156106f757600080fd5b600160003373ffffffffffffffffffffffffffffffffffffffff1673ffffffffffffffffffffffffffffffffffffffff16815260200190815260200160002054905060007f01000000000000000000000000000000000000000000000000000000000000000281600060208110151561076c57fe5b1a7f0100000000000000000000000000000000000000000000000000000000000000027effffffffffffffffffffffffffffffffffffffffffffffffffffffffffffff1916141515156107be57600080fd5b816040015173ffffffffffffffffffffffffffffffffffffffff166108fc349081150290604051600060405180830381858888f19350505050158015610808573d6000803e3d6000fd5b50836000191681600019167fb9d5f66c1a94a629eff2b1babbd945e0de57a566db835db140b1f752b9d9cbd6856040518080602001828103825283818151815260200191508051906020019080838360005b8381101561087557808201518184015260208101905061085a565b50505050905090810190601f1680156108a25780820380516001836020036101000a031916815260200191505b509250505060405180910390a350505050565b6060604051908101604052806000815260200160608152602001600073ffffffffffffffffffffffffffffffffffffffff1681525090565b828054600181600116156101000203166002900490600052602060002090601f016020900481019282601f1061092e57805160ff191683800117855561095c565b8280016001018555821561095c579182015b8281111561095b578251825591602001919060010190610940565b5b509050610969919061096d565b5090565b61098f91905b8082111561098b576000816000905550600101610973565b5090565b905600a165627a7a72305820b83c5f355521b802123defb4e6d8aac9517a13b034732268bcdbb3e8df32253d0029",
  "source": "pragma solidity ^0.4.24;\n\ncontract FirstContact {\n    struct User {\n        uint fee;\n        string linkedinUrl;\n        address publicAddress;\n    }\n\n    event LogUserAdded (\n        bytes32 indexed username,\n        address publicAddress,\n        uint fee,\n        string linkedinUrl\n    );\n\n    event LogMessageSent (\n        bytes32 indexed fromUsername,\n        bytes32 indexed toUsername,\n        string text\n    );\n\n    // username => User\n    mapping (bytes32 => User) users;\n\n    mapping (address => bytes32) userAddresses;\n\n    constructor () public {}\n\n    function isUsernameTaken (\n        bytes32 username\n    ) public view returns (bool) {\n        return users[username].publicAddress != 0x0;\n    }\n\n    function registerUser (\n        bytes32 username,\n        uint fee,\n        string linkedinUrl,\n        address publicAddress\n    ) public {\n        require(username[0] != 0); // usernames must not be empty\n        require(publicAddress != 0x0); // publicAddress must be a valid address\n        require(!isUsernameTaken(username)); // no duplicate usernames\n        require(userAddresses[msg.sender][0] == 0); // also, one address can register only one username\n\n        User memory user = User({\n            fee: fee,\n            linkedinUrl: linkedinUrl,\n            publicAddress: publicAddress\n        });\n\n        users[username] = user;\n        userAddresses[msg.sender] = username;\n\n        emit LogUserAdded(username, msg.sender, fee, linkedinUrl);\n    }\n\n    function sendMessage (\n        bytes32 toUsername,\n        string text\n    ) public payable {\n        User memory toUser = users[toUsername];\n        require(toUser.publicAddress != 0x0); // recepient must exist\n        require(msg.value == toUser.fee); // must send the required ether\n\n        bytes32 myUsername = userAddresses[msg.sender];\n        require(myUsername[0] != 0); // sender must exist\n\n        toUser.publicAddress.transfer(msg.value);\n\n        emit LogMessageSent(myUsername, toUsername, text);\n    }\n}",
  "sourcePath": "/Users/petars/projects/workshops/first-contact/contracts/FirstContact.sol",
  "compiler": {
    "name": "solc",
    "version": "0.4.24+commit.e67f0147.Emscripten.clang"
  },
  "schemaVersion": "2.0.1",
  "updatedAt": "2018-07-23T15:35:28.760Z"
}